{
  "_format": "hh-sol-artifact-1",
  "contractName": "DeezNutzNFT",
  "sourceName": "contracts/DeezNutzNFT.sol",
  "abi": [
    {
      "inputs": [
        {
          "internalType": "string",
          "name": "_name",
          "type": "string"
        },
        {
          "internalType": "string",
          "name": "_symbol",
          "type": "string"
        },
        {
          "internalType": "string",
          "name": "_initBaseURI",
          "type": "string"
        }
      ],
      "stateMutability": "nonpayable",
      "type": "constructor"
    },
    {
      "anonymous": false,
      "inputs": [
        {
          "indexed": true,
          "internalType": "address",
          "name": "owner",
          "type": "address"
        },
        {
          "indexed": true,
          "internalType": "address",
          "name": "approved",
          "type": "address"
        },
        {
          "indexed": true,
          "internalType": "uint256",
          "name": "tokenId",
          "type": "uint256"
        }
      ],
      "name": "Approval",
      "type": "event"
    },
    {
      "anonymous": false,
      "inputs": [
        {
          "indexed": true,
          "internalType": "address",
          "name": "owner",
          "type": "address"
        },
        {
          "indexed": true,
          "internalType": "address",
          "name": "operator",
          "type": "address"
        },
        {
          "indexed": false,
          "internalType": "bool",
          "name": "approved",
          "type": "bool"
        }
      ],
      "name": "ApprovalForAll",
      "type": "event"
    },
    {
      "anonymous": false,
      "inputs": [
        {
          "indexed": true,
          "internalType": "address",
          "name": "previousOwner",
          "type": "address"
        },
        {
          "indexed": true,
          "internalType": "address",
          "name": "newOwner",
          "type": "address"
        }
      ],
      "name": "OwnershipTransferred",
      "type": "event"
    },
    {
      "anonymous": false,
      "inputs": [
        {
          "indexed": true,
          "internalType": "address",
          "name": "from",
          "type": "address"
        },
        {
          "indexed": true,
          "internalType": "address",
          "name": "to",
          "type": "address"
        },
        {
          "indexed": true,
          "internalType": "uint256",
          "name": "tokenId",
          "type": "uint256"
        }
      ],
      "name": "Transfer",
      "type": "event"
    },
    {
      "inputs": [
        {
          "internalType": "address",
          "name": "to",
          "type": "address"
        },
        {
          "internalType": "uint256",
          "name": "tokenId",
          "type": "uint256"
        }
      ],
      "name": "approve",
      "outputs": [],
      "stateMutability": "nonpayable",
      "type": "function"
    },
    {
      "inputs": [
        {
          "internalType": "address",
          "name": "owner",
          "type": "address"
        }
      ],
      "name": "balanceOf",
      "outputs": [
        {
          "internalType": "uint256",
          "name": "",
          "type": "uint256"
        }
      ],
      "stateMutability": "view",
      "type": "function"
    },
    {
      "inputs": [],
      "name": "baseExtension",
      "outputs": [
        {
          "internalType": "string",
          "name": "",
          "type": "string"
        }
      ],
      "stateMutability": "view",
      "type": "function"
    },
    {
      "inputs": [],
      "name": "baseURI",
      "outputs": [
        {
          "internalType": "string",
          "name": "",
          "type": "string"
        }
      ],
      "stateMutability": "view",
      "type": "function"
    },
    {
      "inputs": [
        {
          "internalType": "bytes32",
          "name": "c__0x28de972f",
          "type": "bytes32"
        }
      ],
      "name": "c_0x28de972f",
      "outputs": [],
      "stateMutability": "pure",
      "type": "function"
    },
    {
      "inputs": [],
      "name": "cost",
      "outputs": [
        {
          "internalType": "uint256",
          "name": "",
          "type": "uint256"
        }
      ],
      "stateMutability": "view",
      "type": "function"
    },
    {
      "inputs": [
        {
          "internalType": "uint256",
          "name": "tokenId",
          "type": "uint256"
        }
      ],
      "name": "getApproved",
      "outputs": [
        {
          "internalType": "address",
          "name": "",
          "type": "address"
        }
      ],
      "stateMutability": "view",
      "type": "function"
    },
    {
      "inputs": [
        {
          "internalType": "address",
          "name": "owner",
          "type": "address"
        },
        {
          "internalType": "address",
          "name": "operator",
          "type": "address"
        }
      ],
      "name": "isApprovedForAll",
      "outputs": [
        {
          "internalType": "bool",
          "name": "",
          "type": "bool"
        }
      ],
      "stateMutability": "view",
      "type": "function"
    },
    {
      "inputs": [],
      "name": "maxMintAmount",
      "outputs": [
        {
          "internalType": "uint256",
          "name": "",
          "type": "uint256"
        }
      ],
      "stateMutability": "view",
      "type": "function"
    },
    {
      "inputs": [],
      "name": "maxSupply",
      "outputs": [
        {
          "internalType": "uint256",
          "name": "",
          "type": "uint256"
        }
      ],
      "stateMutability": "view",
      "type": "function"
    },
    {
      "inputs": [
        {
          "internalType": "address",
          "name": "_to",
          "type": "address"
        },
        {
          "internalType": "uint256",
          "name": "_mintAmount",
          "type": "uint256"
        }
      ],
      "name": "mint",
      "outputs": [],
      "stateMutability": "payable",
      "type": "function"
    },
    {
      "inputs": [],
      "name": "name",
      "outputs": [
        {
          "internalType": "string",
          "name": "",
          "type": "string"
        }
      ],
      "stateMutability": "view",
      "type": "function"
    },
    {
      "inputs": [],
      "name": "owner",
      "outputs": [
        {
          "internalType": "address",
          "name": "",
          "type": "address"
        }
      ],
      "stateMutability": "view",
      "type": "function"
    },
    {
      "inputs": [
        {
          "internalType": "uint256",
          "name": "tokenId",
          "type": "uint256"
        }
      ],
      "name": "ownerOf",
      "outputs": [
        {
          "internalType": "address",
          "name": "",
          "type": "address"
        }
      ],
      "stateMutability": "view",
      "type": "function"
    },
    {
      "inputs": [
        {
          "internalType": "bool",
          "name": "_state",
          "type": "bool"
        }
      ],
      "name": "pause",
      "outputs": [],
      "stateMutability": "nonpayable",
      "type": "function"
    },
    {
      "inputs": [],
      "name": "paused",
      "outputs": [
        {
          "internalType": "bool",
          "name": "",
          "type": "bool"
        }
      ],
      "stateMutability": "view",
      "type": "function"
    },
    {
      "inputs": [
        {
          "internalType": "address",
          "name": "_user",
          "type": "address"
        }
      ],
      "name": "removeWhitelistUser",
      "outputs": [],
      "stateMutability": "nonpayable",
      "type": "function"
    },
    {
      "inputs": [],
      "name": "renounceOwnership",
      "outputs": [],
      "stateMutability": "nonpayable",
      "type": "function"
    },
    {
      "inputs": [
        {
          "internalType": "address",
          "name": "from",
          "type": "address"
        },
        {
          "internalType": "address",
          "name": "to",
          "type": "address"
        },
        {
          "internalType": "uint256",
          "name": "tokenId",
          "type": "uint256"
        }
      ],
      "name": "safeTransferFrom",
      "outputs": [],
      "stateMutability": "nonpayable",
      "type": "function"
    },
    {
      "inputs": [
        {
          "internalType": "address",
          "name": "from",
          "type": "address"
        },
        {
          "internalType": "address",
          "name": "to",
          "type": "address"
        },
        {
          "internalType": "uint256",
          "name": "tokenId",
          "type": "uint256"
        },
        {
          "internalType": "bytes",
          "name": "_data",
          "type": "bytes"
        }
      ],
      "name": "safeTransferFrom",
      "outputs": [],
      "stateMutability": "nonpayable",
      "type": "function"
    },
    {
      "inputs": [
        {
          "internalType": "address",
          "name": "operator",
          "type": "address"
        },
        {
          "internalType": "bool",
          "name": "approved",
          "type": "bool"
        }
      ],
      "name": "setApprovalForAll",
      "outputs": [],
      "stateMutability": "nonpayable",
      "type": "function"
    },
    {
      "inputs": [
        {
          "internalType": "string",
          "name": "_newBaseExtension",
          "type": "string"
        }
      ],
      "name": "setBaseExtension",
      "outputs": [],
      "stateMutability": "nonpayable",
      "type": "function"
    },
    {
      "inputs": [
        {
          "internalType": "string",
          "name": "_newBaseURI",
          "type": "string"
        }
      ],
      "name": "setBaseURI",
      "outputs": [],
      "stateMutability": "nonpayable",
      "type": "function"
    },
    {
      "inputs": [
        {
          "internalType": "uint256",
          "name": "_newCost",
          "type": "uint256"
        }
      ],
      "name": "setCost",
      "outputs": [],
      "stateMutability": "nonpayable",
      "type": "function"
    },
    {
      "inputs": [
        {
          "internalType": "uint256",
          "name": "_newmaxMintAmount",
          "type": "uint256"
        }
      ],
      "name": "setmaxMintAmount",
      "outputs": [],
      "stateMutability": "nonpayable",
      "type": "function"
    },
    {
      "inputs": [
        {
          "internalType": "bytes4",
          "name": "interfaceId",
          "type": "bytes4"
        }
      ],
      "name": "supportsInterface",
      "outputs": [
        {
          "internalType": "bool",
          "name": "",
          "type": "bool"
        }
      ],
      "stateMutability": "view",
      "type": "function"
    },
    {
      "inputs": [],
      "name": "symbol",
      "outputs": [
        {
          "internalType": "string",
          "name": "",
          "type": "string"
        }
      ],
      "stateMutability": "view",
      "type": "function"
    },
    {
      "inputs": [
        {
          "internalType": "uint256",
          "name": "index",
          "type": "uint256"
        }
      ],
      "name": "tokenByIndex",
      "outputs": [
        {
          "internalType": "uint256",
          "name": "",
          "type": "uint256"
        }
      ],
      "stateMutability": "view",
      "type": "function"
    },
    {
      "inputs": [
        {
          "internalType": "address",
          "name": "owner",
          "type": "address"
        },
        {
          "internalType": "uint256",
          "name": "index",
          "type": "uint256"
        }
      ],
      "name": "tokenOfOwnerByIndex",
      "outputs": [
        {
          "internalType": "uint256",
          "name": "",
          "type": "uint256"
        }
      ],
      "stateMutability": "view",
      "type": "function"
    },
    {
      "inputs": [
        {
          "internalType": "uint256",
          "name": "tokenId",
          "type": "uint256"
        }
      ],
      "name": "tokenURI",
      "outputs": [
        {
          "internalType": "string",
          "name": "",
          "type": "string"
        }
      ],
      "stateMutability": "view",
      "type": "function"
    },
    {
      "inputs": [],
      "name": "totalSupply",
      "outputs": [
        {
          "internalType": "uint256",
          "name": "",
          "type": "uint256"
        }
      ],
      "stateMutability": "view",
      "type": "function"
    },
    {
      "inputs": [
        {
          "internalType": "address",
          "name": "from",
          "type": "address"
        },
        {
          "internalType": "address",
          "name": "to",
          "type": "address"
        },
        {
          "internalType": "uint256",
          "name": "tokenId",
          "type": "uint256"
        }
      ],
      "name": "transferFrom",
      "outputs": [],
      "stateMutability": "nonpayable",
      "type": "function"
    },
    {
      "inputs": [
        {
          "internalType": "address",
          "name": "newOwner",
          "type": "address"
        }
      ],
      "name": "transferOwnership",
      "outputs": [],
      "stateMutability": "nonpayable",
      "type": "function"
    },
    {
      "inputs": [
        {
          "internalType": "address",
          "name": "_owner",
          "type": "address"
        }
      ],
      "name": "walletOfOwner",
      "outputs": [
        {
          "internalType": "uint256[]",
          "name": "",
          "type": "uint256[]"
        }
      ],
      "stateMutability": "view",
      "type": "function"
    },
    {
      "inputs": [
        {
          "internalType": "address",
          "name": "_user",
          "type": "address"
        }
      ],
      "name": "whitelistUser",
      "outputs": [],
      "stateMutability": "nonpayable",
      "type": "function"
    },
    {
      "inputs": [
        {
          "internalType": "address",
          "name": "",
          "type": "address"
        }
      ],
      "name": "whitelisted",
      "outputs": [
        {
          "internalType": "bool",
          "name": "",
          "type": "bool"
        }
      ],
      "stateMutability": "view",
      "type": "function"
    },
    {
      "inputs": [],
      "name": "withdraw",
      "outputs": [],
      "stateMutability": "payable",
      "type": "function"
    }
  ],
  "bytecode": "0x608060405260405180602001604052806000815250600c90805190602001906200002b92919062001751565b50662386f26fc10000600d556103e8600e556014600f556000601060006101000a81548160ff0219169083151502179055503480156200006a57600080fd5b5060405162007385380380620073858339818101604052810190620000909190620018b6565b82828160009080519060200190620000aa92919062001751565b508060019080519060200190620000c392919062001751565b505050620000e6620000da6200021760201b60201c565b6200021f60201b60201c565b6200011a7f04be8421ee904c68467fa370737056c5b0d4f1cd3f4dfe6302020c1e679b446160001b620002e560201b60201c565b6200014e7fa02a5e36e3e680a59414f94758bde73400c6593d82fa4d228710f1306f82eff260001b620002e560201b60201c565b620001827fc665bdfe1fedfdd5eac8645f124eb40824f9ff9a03642f0c586ae67229215bae60001b620002e560201b60201c565b6200019381620002e860201b60201c565b620001c77f3a7e6da41522aec31e597f64a1913abcd6d803d162a88854d91c0c5fbbb93a3160001b620002e560201b60201c565b620001fb7f28b527a59c7896dc89aac48864226fafecff691edf97711357231b5aa5c7c77460001b620002e560201b60201c565b6200020e3360056200042f60201b60201c565b5050506200202b565b600033905090565b6000600a60009054906101000a900473ffffffffffffffffffffffffffffffffffffffff16905081600a60006101000a81548173ffffffffffffffffffffffffffffffffffffffff021916908373ffffffffffffffffffffffffffffffffffffffff1602179055508173ffffffffffffffffffffffffffffffffffffffff168173ffffffffffffffffffffffffffffffffffffffff167f8be0079c531659141344cd1fd0a4f28419497f9722a3daafe3b4186f6b6457e060405160405180910390a35050565b50565b620002f86200021760201b60201c565b73ffffffffffffffffffffffffffffffffffffffff166200031e62000cc660201b60201c565b73ffffffffffffffffffffffffffffffffffffffff161462000377576040517f08c379a00000000000000000000000000000000000000000000000000000000081526004016200036e9062001b59565b60405180910390fd5b620003ab7f30c63990ff7bc40d98b08d3a05cd1665cd7199332b8ebf1b5295f923912f3f0e60001b620002e560201b60201c565b620003df7faffc80c13e2c2ab53fd2ce98366623fe5f09b1d20c5389d0eea49b8a983ea1fd60001b620002e560201b60201c565b620004137fa29e5b6090fd4e454537d72a544b78be58a05dc59c59b91bd4dd4247c4036eb960001b620002e560201b60201c565b80600b90805190602001906200042b92919062001751565b5050565b620004637fb9b85fd53cd272933fe17b5b35e47aec778a2f64d697b23d6b176327f037c0e960001b620002e560201b60201c565b620004977f597e28776bfda350b2740e1b60ee7227fc44dd4637cdd25e7d891558dc3f064860001b620002e560201b60201c565b620004cb7f6ad22bc1687c437bb3fd6e9a7c590413211f7e55e998abe9872bc4473a1fb00a60001b620002e560201b60201c565b6000620004dd62000cf060201b60201c565b9050620005137f98ee7bd2dee1ef7db3deb851d8e3645cd08717c075fc7f7b9d211d354c011ed760001b620002e560201b60201c565b620005477f5e1221a8a5d29a9fefc8aae81170976ea46cd5ab61d3726bbce3430453281fa060001b620002e560201b60201c565b6200057b7f1e1d8e607ca7f346830f13bc295749758999c4a4139046b74c4db257c0b37fa560001b620002e560201b60201c565b601060009054906101000a900460ff16156200059657600080fd5b620005ca7f8ab33e14f96ada97426d2d5691154517d9c834d18fac5a06fbeb58d2f7fe4aac60001b620002e560201b60201c565b620005fe7ff6719bff18dd0e545c9db92cff645c45fa2ad48ca5fb85d374c145710108f1fd60001b620002e560201b60201c565b620006327f0cf24fa8ef2531e3c398475b986ed1824cadaaf37c65d1349db4c833c9c7010560001b620002e560201b60201c565b620006667f0b743b5b95900c25a5fc39713ea32c52be77d15a07ac5ff35882560cf88acea860001b620002e560201b60201c565b600082116200067457600080fd5b620006a87f384541ede3f634f52af8cff8494ac186a127b79cef25fada3e57dc898c0fe88e60001b620002e560201b60201c565b620006dc7fee7c346d9d8b561bfbfbb3b6ffabe49290ef3737c3d35d5665fc20a27db9161f60001b620002e560201b60201c565b620007107f08f3f13d305a9e365be77bf8fd7d2af7eed572c663f136576d982140540bf31460001b620002e560201b60201c565b620007447fcf325bbbae6dda4f25e68d83e06dd9ad864262cfc8c8be6b2467e9c6893d69f060001b620002e560201b60201c565b600f548211156200075457600080fd5b620007887f185982ffe41c18c74f59ca1fcdf4476be3df07a194673d0b9320eaa0f356e49f60001b620002e560201b60201c565b620007bc7f96507c7ec6f351f06bc5ad84252baefad41ca261bb2c9c4be1bd80714bb8d48c60001b620002e560201b60201c565b620007f07fd1d3b006c9f8a7f42a68c51ce6305f45812992cdc576a87ac321e168c6da9f0a60001b620002e560201b60201c565b620008247fffdd322e5c23d366f004fe59d5640c228ac6dc5436df90eeb48332504420f40160001b620002e560201b60201c565b600e54828262000835919062001c07565b11156200084157600080fd5b620008757f455b4341780b2eacf5f636f0b3596522355fee125aab699344de0ae71f27983260001b620002e560201b60201c565b620008a97f9aec41cb8991af53a99b087234beca944adadb194d9938d1b139bf33af181b6760001b620002e560201b60201c565b620008dd7f0607d3bb832e690c7083e9f2818f36861b971994dd2b1937c67eaac83dc4942360001b620002e560201b60201c565b620008ed62000cc660201b60201c565b73ffffffffffffffffffffffffffffffffffffffff163373ffffffffffffffffffffffffffffffffffffffff161462000b7757620009547fa011c8b76d806e50caced3e9700b8cf43ecf848c769c1c5cacee14d3242898a760001b620002e560201b60201c565b620009887fc389ed906f2eb37cfe6e7cb977e134c0f759a814271dfc6c21177ccb3a0bb8f060001b620002e560201b60201c565b620009bc7fc77cf52c4b85fe4b44fded5e44402fa7bd083f397a3da81c7293b965d4501dd960001b620002e560201b60201c565b60011515601160003373ffffffffffffffffffffffffffffffffffffffff1673ffffffffffffffffffffffffffffffffffffffff16815260200190815260200160002060009054906101000a900460ff1615151462000b3c5762000a497f646529337aa99c7c962a9b1fecdd3435758b52a753892b12b31679080877ad4560001b620002e560201b60201c565b62000a7d7fe43e247f204cee87f95c952a6876c697556e88bb3bdef078b17c52364bbb6c9160001b620002e560201b60201c565b62000ab17fa93c7077533357140e6a910404d8280c333c87b72b70d6ec14230819bce9f09c60001b620002e560201b60201c565b62000ae57f3a93e660dbc29a17782c9388e892bcb686883c4fade0d5b3240625f6d212fffe60001b620002e560201b60201c565b81600d5462000af5919062001c64565b34101562000b0257600080fd5b62000b367f5f87d43ed1354cdf65109ea21f49f313e378e1669b2c696d2ed3495ebe1d0dc160001b620002e560201b60201c565b62000b71565b62000b707f65d95116bc27c323372d07a2d2f1cfa7701393f761bc2366e77bcd82075e45cb60001b620002e560201b60201c565b5b62000bac565b62000bab7fef1b926340f23934fc4d9a04be8f9670188d5e7c8405a864cce6389a070163ed60001b620002e560201b60201c565b5b62000be07f1dc623ca4c937e412686350b1836393293bd1143da114daa9cede640f773ce4e60001b620002e560201b60201c565b62000c147faaa653ab093cd0a60a5cfa4cd73dbeb3bdb550b5c2fa96d14fc8acc183706bca60001b620002e560201b60201c565b6000600190505b82811162000cc05762000c577fb814b6d8f65ac48a7a1355f31aea3bcd2459b05fd8a8d5c126a5270bc4fb67c560001b620002e560201b60201c565b62000c8b7f04c9b3b1396f4acaa4e44ee96cefa809010116c1bd4273b3df0cd5da8e0e57cc60001b620002e560201b60201c565b62000caa84828462000c9e919062001c07565b62000cfd60201b60201c565b808062000cb79062001e0c565b91505062000c1b565b50505050565b6000600a60009054906101000a900473ffffffffffffffffffffffffffffffffffffffff16905090565b6000600880549050905090565b62000d1f82826040518060200160405280600081525062000d2360201b60201c565b5050565b62000d35838362000d9160201b60201c565b62000d4a600084848462000f7760201b60201c565b62000d8c576040517f08c379a000000000000000000000000000000000000000000000000000000000815260040162000d839062001ad1565b60405180910390fd5b505050565b600073ffffffffffffffffffffffffffffffffffffffff168273ffffffffffffffffffffffffffffffffffffffff16141562000e04576040517f08c379a000000000000000000000000000000000000000000000000000000000815260040162000dfb9062001b37565b60405180910390fd5b62000e15816200113160201b60201c565b1562000e58576040517f08c379a000000000000000000000000000000000000000000000000000000000815260040162000e4f9062001af3565b60405180910390fd5b62000e6c600083836200119d60201b60201c565b6001600360008473ffffffffffffffffffffffffffffffffffffffff1673ffffffffffffffffffffffffffffffffffffffff168152602001908152602001600020600082825462000ebe919062001c07565b92505081905550816002600083815260200190815260200160002060006101000a81548173ffffffffffffffffffffffffffffffffffffffff021916908373ffffffffffffffffffffffffffffffffffffffff160217905550808273ffffffffffffffffffffffffffffffffffffffff16600073ffffffffffffffffffffffffffffffffffffffff167fddf252ad1be2c89b69c2b068fc378daa952ba7f163c4a11628f55a4df523b3ef60405160405180910390a45050565b600062000fa58473ffffffffffffffffffffffffffffffffffffffff16620012e460201b62002ab81760201c565b1562001124578373ffffffffffffffffffffffffffffffffffffffff1663150b7a0262000fd76200021760201b60201c565b8786866040518563ffffffff1660e01b815260040162000ffb949392919062001a7d565b602060405180830381600087803b1580156200101657600080fd5b505af19250505080156200104a57506040513d601f19601f820116820180604052508101906200104791906200188a565b60015b620010d3573d80600081146200107d576040519150601f19603f3d011682016040523d82523d6000602084013e62001082565b606091505b50600081511415620010cb576040517f08c379a0000000000000000000000000000000000000000000000000000000008152600401620010c29062001ad1565b60405180910390fd5b805181602001fd5b63150b7a0260e01b7bffffffffffffffffffffffffffffffffffffffffffffffffffffffff1916817bffffffffffffffffffffffffffffffffffffffffffffffffffffffff19161491505062001129565b600190505b949350505050565b60008073ffffffffffffffffffffffffffffffffffffffff166002600084815260200190815260200160002060009054906101000a900473ffffffffffffffffffffffffffffffffffffffff1673ffffffffffffffffffffffffffffffffffffffff1614159050919050565b620011b5838383620012f760201b62002acb1760201c565b600073ffffffffffffffffffffffffffffffffffffffff168373ffffffffffffffffffffffffffffffffffffffff1614156200120257620011fc81620012fc60201b60201c565b6200124a565b8173ffffffffffffffffffffffffffffffffffffffff168373ffffffffffffffffffffffffffffffffffffffff161462001249576200124883826200134560201b60201c565b5b5b600073ffffffffffffffffffffffffffffffffffffffff168273ffffffffffffffffffffffffffffffffffffffff16141562001297576200129181620014c260201b60201c565b620012df565b8273ffffffffffffffffffffffffffffffffffffffff168273ffffffffffffffffffffffffffffffffffffffff1614620012de57620012dd82826200160a60201b60201c565b5b5b505050565b600080823b905060008111915050919050565b505050565b6008805490506009600083815260200190815260200160002081905550600881908060018154018082558091505060019003906000526020600020016000909190919091505550565b600060016200135f846200169660201b6200203c1760201c565b6200136b919062001cc5565b905060006007600084815260200190815260200160002054905081811462001451576000600660008673ffffffffffffffffffffffffffffffffffffffff1673ffffffffffffffffffffffffffffffffffffffff168152602001908152602001600020600084815260200190815260200160002054905080600660008773ffffffffffffffffffffffffffffffffffffffff1673ffffffffffffffffffffffffffffffffffffffff168152602001908152602001600020600084815260200190815260200160002081905550816007600083815260200190815260200160002081905550505b6007600084815260200190815260200160002060009055600660008573ffffffffffffffffffffffffffffffffffffffff1673ffffffffffffffffffffffffffffffffffffffff16815260200190815260200160002060008381526020019081526020016000206000905550505050565b60006001600880549050620014d8919062001cc5565b90506000600960008481526020019081526020016000205490506000600883815481106200152f577f4e487b7100000000000000000000000000000000000000000000000000000000600052603260045260246000fd5b90600052602060002001549050806008838154811062001578577f4e487b7100000000000000000000000000000000000000000000000000000000600052603260045260246000fd5b906000526020600020018190555081600960008381526020019081526020016000208190555060096000858152602001908152602001600020600090556008805480620015ee577f4e487b7100000000000000000000000000000000000000000000000000000000600052603160045260246000fd5b6001900381819060005260206000200160009055905550505050565b600062001622836200169660201b6200203c1760201c565b905081600660008573ffffffffffffffffffffffffffffffffffffffff1673ffffffffffffffffffffffffffffffffffffffff168152602001908152602001600020600083815260200190815260200160002081905550806007600084815260200190815260200160002081905550505050565b60008073ffffffffffffffffffffffffffffffffffffffff168273ffffffffffffffffffffffffffffffffffffffff1614156200170a576040517f08c379a0000000000000000000000000000000000000000000000000000000008152600401620017019062001b15565b60405180910390fd5b600360008373ffffffffffffffffffffffffffffffffffffffff1673ffffffffffffffffffffffffffffffffffffffff168152602001908152602001600020549050919050565b8280546200175f9062001da0565b90600052602060002090601f016020900481019282620017835760008555620017cf565b82601f106200179e57805160ff1916838001178555620017cf565b82800160010185558215620017cf579182015b82811115620017ce578251825591602001919060010190620017b1565b5b509050620017de9190620017e2565b5090565b5b80821115620017fd576000816000905550600101620017e3565b5090565b600062001818620018128462001ba4565b62001b7b565b9050828152602081018484840111156200183157600080fd5b6200183e84828562001d6a565b509392505050565b600081519050620018578162002011565b92915050565b600082601f8301126200186f57600080fd5b81516200188184826020860162001801565b91505092915050565b6000602082840312156200189d57600080fd5b6000620018ad8482850162001846565b91505092915050565b600080600060608486031215620018cc57600080fd5b600084015167ffffffffffffffff811115620018e757600080fd5b620018f5868287016200185d565b935050602084015167ffffffffffffffff8111156200191357600080fd5b62001921868287016200185d565b925050604084015167ffffffffffffffff8111156200193f57600080fd5b6200194d868287016200185d565b9150509250925092565b620019628162001d00565b82525050565b6000620019758262001bda565b62001981818562001be5565b93506200199381856020860162001d6a565b6200199e8162001ee7565b840191505092915050565b6000620019b860328362001bf6565b9150620019c58262001ef8565b604082019050919050565b6000620019df601c8362001bf6565b9150620019ec8262001f47565b602082019050919050565b600062001a06602a8362001bf6565b915062001a138262001f70565b604082019050919050565b600062001a2d60208362001bf6565b915062001a3a8262001fbf565b602082019050919050565b600062001a5460208362001bf6565b915062001a618262001fe8565b602082019050919050565b62001a778162001d60565b82525050565b600060808201905062001a94600083018762001957565b62001aa3602083018662001957565b62001ab2604083018562001a6c565b818103606083015262001ac6818462001968565b905095945050505050565b6000602082019050818103600083015262001aec81620019a9565b9050919050565b6000602082019050818103600083015262001b0e81620019d0565b9050919050565b6000602082019050818103600083015262001b3081620019f7565b9050919050565b6000602082019050818103600083015262001b528162001a1e565b9050919050565b6000602082019050818103600083015262001b748162001a45565b9050919050565b600062001b8762001b9a565b905062001b95828262001dd6565b919050565b6000604051905090565b600067ffffffffffffffff82111562001bc25762001bc162001eb8565b5b62001bcd8262001ee7565b9050602081019050919050565b600081519050919050565b600082825260208201905092915050565b600082825260208201905092915050565b600062001c148262001d60565b915062001c218362001d60565b9250827fffffffffffffffffffffffffffffffffffffffffffffffffffffffffffffffff0382111562001c595762001c5862001e5a565b5b828201905092915050565b600062001c718262001d60565b915062001c7e8362001d60565b9250817fffffffffffffffffffffffffffffffffffffffffffffffffffffffffffffffff048311821515161562001cba5762001cb962001e5a565b5b828202905092915050565b600062001cd28262001d60565b915062001cdf8362001d60565b92508282101562001cf55762001cf462001e5a565b5b828203905092915050565b600062001d0d8262001d40565b9050919050565b60007fffffffff0000000000000000000000000000000000000000000000000000000082169050919050565b600073ffffffffffffffffffffffffffffffffffffffff82169050919050565b6000819050919050565b60005b8381101562001d8a57808201518184015260208101905062001d6d565b8381111562001d9a576000848401525b50505050565b6000600282049050600182168062001db957607f821691505b6020821081141562001dd05762001dcf62001e89565b5b50919050565b62001de18262001ee7565b810181811067ffffffffffffffff8211171562001e035762001e0262001eb8565b5b80604052505050565b600062001e198262001d60565b91507fffffffffffffffffffffffffffffffffffffffffffffffffffffffffffffffff82141562001e4f5762001e4e62001e5a565b5b600182019050919050565b7f4e487b7100000000000000000000000000000000000000000000000000000000600052601160045260246000fd5b7f4e487b7100000000000000000000000000000000000000000000000000000000600052602260045260246000fd5b7f4e487b7100000000000000000000000000000000000000000000000000000000600052604160045260246000fd5b6000601f19601f8301169050919050565b7f4552433732313a207472616e7366657220746f206e6f6e20455243373231526560008201527f63656976657220696d706c656d656e7465720000000000000000000000000000602082015250565b7f4552433732313a20746f6b656e20616c7265616479206d696e74656400000000600082015250565b7f4552433732313a2062616c616e636520717565727920666f7220746865207a6560008201527f726f206164647265737300000000000000000000000000000000000000000000602082015250565b7f4552433732313a206d696e7420746f20746865207a65726f2061646472657373600082015250565b7f4f776e61626c653a2063616c6c6572206973206e6f7420746865206f776e6572600082015250565b6200201c8162001d14565b81146200202857600080fd5b50565b61534a806200203b6000396000f3fe60806040526004361061021a5760003560e01c806355f804b31161012357806395d89b41116100ab578063d5abeb011161006f578063d5abeb01146107b3578063d936547e146107de578063da3ef23f1461081b578063e985e9c514610844578063f2fde38b146108815761021a565b806395d89b41146106ce578063a22cb465146106f9578063b88d4fde14610722578063c66828621461074b578063c87b56dd146107765761021a565b806370a08231116100f257806370a08231146105fd578063715018a61461063a5780637f00c7a61461065157806387f74d201461067a5780638da5cb5b146106a35761021a565b806355f804b3146105415780635c975abb1461056a5780636352211e146105955780636c0360eb146105d25761021a565b80632f745c59116101a657806342842e0e1161017557806342842e0e1461044c578063438b63001461047557806344a0d68a146104b25780634a4c560d146104db5780634f6ccce7146105045761021a565b80632f745c59146103c057806330cc7ae0146103fd5780633ccfd60b1461042657806340c10f19146104305761021a565b8063095ea7b3116101ed578063095ea7b3146102ed57806313faede61461031657806318160ddd14610341578063239c70ae1461036c57806323b872dd146103975761021a565b806301ffc9a71461021f57806302329a291461025c57806306fdde0314610285578063081812fc146102b0575b600080fd5b34801561022b57600080fd5b50610246600480360381019061024191906140bc565b6108aa565b604051610253919061467c565b60405180910390f35b34801561026857600080fd5b50610283600480360381019061027e919061406a565b610924565b005b34801561029157600080fd5b5061029a610a41565b6040516102a79190614697565b60405180910390f35b3480156102bc57600080fd5b506102d760048036038101906102d2919061414f565b610ad3565b6040516102e491906145f3565b60405180910390f35b3480156102f957600080fd5b50610314600480360381019061030f919061402e565b610b58565b005b34801561032257600080fd5b5061032b610c70565b60405161033891906148f9565b60405180910390f35b34801561034d57600080fd5b50610356610c76565b60405161036391906148f9565b60405180910390f35b34801561037857600080fd5b50610381610c83565b60405161038e91906148f9565b60405180910390f35b3480156103a357600080fd5b506103be60048036038101906103b99190613f28565b610c89565b005b3480156103cc57600080fd5b506103e760048036038101906103e2919061402e565b610ce9565b6040516103f491906148f9565b60405180910390f35b34801561040957600080fd5b50610424600480360381019061041f9190613ec3565b610d8e565b005b61042e610ee9565b005b61044a6004803603810190610445919061402e565b611081565b005b34801561045857600080fd5b50610473600480360381019061046e9190613f28565b6117d5565b005b34801561048157600080fd5b5061049c60048036038101906104979190613ec3565b6117f5565b6040516104a9919061465a565b60405180910390f35b3480156104be57600080fd5b506104d960048036038101906104d4919061414f565b611ad3565b005b3480156104e757600080fd5b5061050260048036038101906104fd9190613ec3565b611bdd565b005b34801561051057600080fd5b5061052b6004803603810190610526919061414f565b611d38565b60405161053891906148f9565b60405180910390f35b34801561054d57600080fd5b506105686004803603810190610563919061410e565b611dcf565b005b34801561057657600080fd5b5061057f611ee9565b60405161058c919061467c565b60405180910390f35b3480156105a157600080fd5b506105bc60048036038101906105b7919061414f565b611efc565b6040516105c991906145f3565b60405180910390f35b3480156105de57600080fd5b506105e7611fae565b6040516105f49190614697565b60405180910390f35b34801561060957600080fd5b50610624600480360381019061061f9190613ec3565b61203c565b60405161063191906148f9565b60405180910390f35b34801561064657600080fd5b5061064f6120f4565b005b34801561065d57600080fd5b506106786004803603810190610673919061414f565b61217c565b005b34801561068657600080fd5b506106a1600480360381019061069c9190614093565b612286565b005b3480156106af57600080fd5b506106b8612289565b6040516106c591906145f3565b60405180910390f35b3480156106da57600080fd5b506106e36122b3565b6040516106f09190614697565b60405180910390f35b34801561070557600080fd5b50610720600480360381019061071b9190613ff2565b612345565b005b34801561072e57600080fd5b5061074960048036038101906107449190613f77565b6124c6565b005b34801561075757600080fd5b50610760612528565b60405161076d9190614697565b60405180910390f35b34801561078257600080fd5b5061079d6004803603810190610798919061414f565b6125b6565b6040516107aa9190614697565b60405180910390f35b3480156107bf57600080fd5b506107c86127ec565b6040516107d591906148f9565b60405180910390f35b3480156107ea57600080fd5b5061080560048036038101906108009190613ec3565b6127f2565b604051610812919061467c565b60405180910390f35b34801561082757600080fd5b50610842600480360381019061083d919061410e565b612812565b005b34801561085057600080fd5b5061086b60048036038101906108669190613eec565b61292c565b604051610878919061467c565b60405180910390f35b34801561088d57600080fd5b506108a860048036038101906108a39190613ec3565b6129c0565b005b60007f780e9d63000000000000000000000000000000000000000000000000000000007bffffffffffffffffffffffffffffffffffffffffffffffffffffffff1916827bffffffffffffffffffffffffffffffffffffffffffffffffffffffff1916148061091d575061091c82612ad0565b5b9050919050565b61092c612bb2565b73ffffffffffffffffffffffffffffffffffffffff1661094a612289565b73ffffffffffffffffffffffffffffffffffffffff16146109a0576040517f08c379a000000000000000000000000000000000000000000000000000000000815260040161099790614839565b60405180910390fd5b6109cc7fac296bd4548c35cec7b09cbd3ea98c560c253381bb89f5c270ec4fab4355a69b60001b612286565b6109f87fc2e51048db4fe10643addd924fa97d5e1d427e8c4e296ffeadd3753147ea98bc60001b612286565b610a247f8285714401d0493cd2ade99a0e8e1a041f32b6b73b0d4f12121d733779c2fdc560001b612286565b80601060006101000a81548160ff02191690831515021790555050565b606060008054610a5090614c01565b80601f0160208091040260200160405190810160405280929190818152602001828054610a7c90614c01565b8015610ac95780601f10610a9e57610100808354040283529160200191610ac9565b820191906000526020600020905b815481529060010190602001808311610aac57829003601f168201915b5050505050905090565b6000610ade82612bba565b610b1d576040517f08c379a0000000000000000000000000000000000000000000000000000000008152600401610b1490614819565b60405180910390fd5b6004600083815260200190815260200160002060009054906101000a900473ffffffffffffffffffffffffffffffffffffffff169050919050565b6000610b6382611efc565b90508073ffffffffffffffffffffffffffffffffffffffff168373ffffffffffffffffffffffffffffffffffffffff161415610bd4576040517f08c379a0000000000000000000000000000000000000000000000000000000008152600401610bcb90614899565b60405180910390fd5b8073ffffffffffffffffffffffffffffffffffffffff16610bf3612bb2565b73ffffffffffffffffffffffffffffffffffffffff161480610c225750610c2181610c1c612bb2565b61292c565b5b610c61576040517f08c379a0000000000000000000000000000000000000000000000000000000008152600401610c5890614799565b60405180910390fd5b610c6b8383612c26565b505050565b600d5481565b6000600880549050905090565b600f5481565b610c9a610c94612bb2565b82612cdf565b610cd9576040517f08c379a0000000000000000000000000000000000000000000000000000000008152600401610cd0906148b9565b60405180910390fd5b610ce4838383612dbd565b505050565b6000610cf48361203c565b8210610d35576040517f08c379a0000000000000000000000000000000000000000000000000000000008152600401610d2c906146b9565b60405180910390fd5b600660008473ffffffffffffffffffffffffffffffffffffffff1673ffffffffffffffffffffffffffffffffffffffff168152602001908152602001600020600083815260200190815260200160002054905092915050565b610d96612bb2565b73ffffffffffffffffffffffffffffffffffffffff16610db4612289565b73ffffffffffffffffffffffffffffffffffffffff1614610e0a576040517f08c379a0000000000000000000000000000000000000000000000000000000008152600401610e0190614839565b60405180910390fd5b610e367f54122a43d963e21e632ec5d26f56d251215c0492fb4fb17f4c72f2c506bab44c60001b612286565b610e627f77a22527514d2692a6bad2e6789d37e64c3b8178141dc7fb4bf58696c3998d9a60001b612286565b610e8e7f0f64e65b944e7f9fbe39a51f1098f22f7dc3a90d6bae2a65a8059e4ec741736160001b612286565b6000601160008373ffffffffffffffffffffffffffffffffffffffff1673ffffffffffffffffffffffffffffffffffffffff16815260200190815260200160002060006101000a81548160ff02191690831515021790555050565b610ef1612bb2565b73ffffffffffffffffffffffffffffffffffffffff16610f0f612289565b73ffffffffffffffffffffffffffffffffffffffff1614610f65576040517f08c379a0000000000000000000000000000000000000000000000000000000008152600401610f5c90614839565b60405180910390fd5b610f917f101171677e064755636b7e205670d625796aa4878613123108571a467709cee560001b612286565b610fbd7fdc4c14e4105726d7645315f284cc3e92933defca94e9616968a821f709f2b0ab60001b612286565b610fe97f5f6c55c82d74a9971af6d363f47b9d268a507a72953b001f4c61cdb37dd70adb60001b612286565b6110157f20435402a9810f64e77a8e7ac7c387bf955ae611b29616d8abdc541f129514d060001b612286565b3373ffffffffffffffffffffffffffffffffffffffff166108fc479081150290604051600060405180830381858888f1935050505061105357600080fd5b61107f7f9e5edaa698c65406ef7c3535aed647dca38f0cda18f13d24ea47a8bbfd15ab3260001b612286565b565b6110ad7fb9b85fd53cd272933fe17b5b35e47aec778a2f64d697b23d6b176327f037c0e960001b612286565b6110d97f597e28776bfda350b2740e1b60ee7227fc44dd4637cdd25e7d891558dc3f064860001b612286565b6111057f6ad22bc1687c437bb3fd6e9a7c590413211f7e55e998abe9872bc4473a1fb00a60001b612286565b600061110f610c76565b905061113d7f98ee7bd2dee1ef7db3deb851d8e3645cd08717c075fc7f7b9d211d354c011ed760001b612286565b6111697f5e1221a8a5d29a9fefc8aae81170976ea46cd5ab61d3726bbce3430453281fa060001b612286565b6111957f1e1d8e607ca7f346830f13bc295749758999c4a4139046b74c4db257c0b37fa560001b612286565b601060009054906101000a900460ff16156111af57600080fd5b6111db7f8ab33e14f96ada97426d2d5691154517d9c834d18fac5a06fbeb58d2f7fe4aac60001b612286565b6112077ff6719bff18dd0e545c9db92cff645c45fa2ad48ca5fb85d374c145710108f1fd60001b612286565b6112337f0cf24fa8ef2531e3c398475b986ed1824cadaaf37c65d1349db4c833c9c7010560001b612286565b61125f7f0b743b5b95900c25a5fc39713ea32c52be77d15a07ac5ff35882560cf88acea860001b612286565b6000821161126c57600080fd5b6112987f384541ede3f634f52af8cff8494ac186a127b79cef25fada3e57dc898c0fe88e60001b612286565b6112c47fee7c346d9d8b561bfbfbb3b6ffabe49290ef3737c3d35d5665fc20a27db9161f60001b612286565b6112f07f08f3f13d305a9e365be77bf8fd7d2af7eed572c663f136576d982140540bf31460001b612286565b61131c7fcf325bbbae6dda4f25e68d83e06dd9ad864262cfc8c8be6b2467e9c6893d69f060001b612286565b600f5482111561132b57600080fd5b6113577f185982ffe41c18c74f59ca1fcdf4476be3df07a194673d0b9320eaa0f356e49f60001b612286565b6113837f96507c7ec6f351f06bc5ad84252baefad41ca261bb2c9c4be1bd80714bb8d48c60001b612286565b6113af7fd1d3b006c9f8a7f42a68c51ce6305f45812992cdc576a87ac321e168c6da9f0a60001b612286565b6113db7fffdd322e5c23d366f004fe59d5640c228ac6dc5436df90eeb48332504420f40160001b612286565b600e5482826113ea9190614a2c565b11156113f557600080fd5b6114217f455b4341780b2eacf5f636f0b3596522355fee125aab699344de0ae71f27983260001b612286565b61144d7f9aec41cb8991af53a99b087234beca944adadb194d9938d1b139bf33af181b6760001b612286565b6114797f0607d3bb832e690c7083e9f2818f36861b971994dd2b1937c67eaac83dc4942360001b612286565b611481612289565b73ffffffffffffffffffffffffffffffffffffffff163373ffffffffffffffffffffffffffffffffffffffff16146116bc576114df7fa011c8b76d806e50caced3e9700b8cf43ecf848c769c1c5cacee14d3242898a760001b612286565b61150b7fc389ed906f2eb37cfe6e7cb977e134c0f759a814271dfc6c21177ccb3a0bb8f060001b612286565b6115377fc77cf52c4b85fe4b44fded5e44402fa7bd083f397a3da81c7293b965d4501dd960001b612286565b60011515601160003373ffffffffffffffffffffffffffffffffffffffff1673ffffffffffffffffffffffffffffffffffffffff16815260200190815260200160002060009054906101000a900460ff1615151461168a576115bb7f646529337aa99c7c962a9b1fecdd3435758b52a753892b12b31679080877ad4560001b612286565b6115e77fe43e247f204cee87f95c952a6876c697556e88bb3bdef078b17c52364bbb6c9160001b612286565b6116137fa93c7077533357140e6a910404d8280c333c87b72b70d6ec14230819bce9f09c60001b612286565b61163f7f3a93e660dbc29a17782c9388e892bcb686883c4fade0d5b3240625f6d212fffe60001b612286565b81600d5461164d9190614ab3565b34101561165957600080fd5b6116857f5f87d43ed1354cdf65109ea21f49f313e378e1669b2c696d2ed3495ebe1d0dc160001b612286565b6116b7565b6116b67f65d95116bc27c323372d07a2d2f1cfa7701393f761bc2366e77bcd82075e45cb60001b612286565b5b6116e9565b6116e87fef1b926340f23934fc4d9a04be8f9670188d5e7c8405a864cce6389a070163ed60001b612286565b5b6117157f1dc623ca4c937e412686350b1836393293bd1143da114daa9cede640f773ce4e60001b612286565b6117417faaa653ab093cd0a60a5cfa4cd73dbeb3bdb550b5c2fa96d14fc8acc183706bca60001b612286565b6000600190505b8281116117cf5761177b7fb814b6d8f65ac48a7a1355f31aea3bcd2459b05fd8a8d5c126a5270bc4fb67c560001b612286565b6117a77f04c9b3b1396f4acaa4e44ee96cefa809010116c1bd4273b3df0cd5da8e0e57cc60001b612286565b6117bc8482846117b79190614a2c565b613019565b80806117c790614c64565b915050611748565b50505050565b6117f0838383604051806020016040528060008152506124c6565b505050565b60606118237f4972e670e68d917b1b646746b7b81ff72e59de13b1e5002e525c95e1757e052960001b612286565b61184f7f0f293b57021f67b2d46c5c647326b3b0d67719c64c134b670577df804211408660001b612286565b61187b7f9581e5e34c1d35ec7e391b5fca149389738e85b4d2520aa51efcb69d4aac148660001b612286565b60006118868361203c565b90506118b47f3e228f9bb19d83528da3f146366e03a1f7a260fd010647e26f404ff63b0cefea60001b612286565b6118e07f92e71eb6dc4d1c00874578f372391a8eb096b4fba5e95ad008c8d6f80664749e60001b612286565b60008167ffffffffffffffff811115611922577f4e487b7100000000000000000000000000000000000000000000000000000000600052604160045260246000fd5b6040519080825280602002602001820160405280156119505781602001602082028036833780820191505090505b50905061197f7f2f549d508271af2dfeaccd567d7ccbdb1b506159908a6b87f4e2492e294e264b60001b612286565b6119ab7fec27e22097a92212a6c43d4e54cf63de2700fefff0b246daa288fccc17923ed760001b612286565b60005b82811015611a70576119e27f9f2c6c3879b0cdd9b4974129b8643538873e92d4dd10d54ba6165960d6fb410360001b612286565b611a0e7f431d0f3b2c9606f9b24af2949e28adc0f283b195074e597d2b386165d82c2c9760001b612286565b611a188582610ce9565b828281518110611a51577f4e487b7100000000000000000000000000000000000000000000000000000000600052603260045260246000fd5b6020026020010181815250508080611a6890614c64565b9150506119ae565b50611a9d7f7b7166ccf50d2b16fcab31c846a1bfa4419c5d9f2f476fd379a8e4207008fad760001b612286565b611ac97faba7e2e4ff3efb79e5ac06e3062d76a79108da8699fd915d3195748d52d43fe060001b612286565b8092505050919050565b611adb612bb2565b73ffffffffffffffffffffffffffffffffffffffff16611af9612289565b73ffffffffffffffffffffffffffffffffffffffff1614611b4f576040517f08c379a0000000000000000000000000000000000000000000000000000000008152600401611b4690614839565b60405180910390fd5b611b7b7f6756f5aaf45be4e51e411eabda0400012dffd230e2a7469eef1e4f91461aeb9a60001b612286565b611ba77fed2b7267c99f78d34430f31f8b10eb5262a34204c08abee2878ed3506a52921360001b612286565b611bd37f346f3773cdbe5191d9895673a940632b30881851343e04a05cf214285c4aa6e560001b612286565b80600d8190555050565b611be5612bb2565b73ffffffffffffffffffffffffffffffffffffffff16611c03612289565b73ffffffffffffffffffffffffffffffffffffffff1614611c59576040517f08c379a0000000000000000000000000000000000000000000000000000000008152600401611c5090614839565b60405180910390fd5b611c857f55c1082c1ae802f051ba99702b04462b99a6276678c22c76549ec8d12713f9cf60001b612286565b611cb17fef910cc44df2117e5914cf8e949fba0a89697b04e40a0f28dcc88458697b79f160001b612286565b611cdd7f741f7d577a3852595a858720a7ce48297f38ec0ff5950e8273fa63836a8aa80560001b612286565b6001601160008373ffffffffffffffffffffffffffffffffffffffff1673ffffffffffffffffffffffffffffffffffffffff16815260200190815260200160002060006101000a81548160ff02191690831515021790555050565b6000611d42610c76565b8210611d83576040517f08c379a0000000000000000000000000000000000000000000000000000000008152600401611d7a906148d9565b60405180910390fd5b60088281548110611dbd577f4e487b7100000000000000000000000000000000000000000000000000000000600052603260045260246000fd5b90600052602060002001549050919050565b611dd7612bb2565b73ffffffffffffffffffffffffffffffffffffffff16611df5612289565b73ffffffffffffffffffffffffffffffffffffffff1614611e4b576040517f08c379a0000000000000000000000000000000000000000000000000000000008152600401611e4290614839565b60405180910390fd5b611e777f30c63990ff7bc40d98b08d3a05cd1665cd7199332b8ebf1b5295f923912f3f0e60001b612286565b611ea37faffc80c13e2c2ab53fd2ce98366623fe5f09b1d20c5389d0eea49b8a983ea1fd60001b612286565b611ecf7fa29e5b6090fd4e454537d72a544b78be58a05dc59c59b91bd4dd4247c4036eb960001b612286565b80600b9080519060200190611ee5929190613cd2565b5050565b601060009054906101000a900460ff1681565b6000806002600084815260200190815260200160002060009054906101000a900473ffffffffffffffffffffffffffffffffffffffff169050600073ffffffffffffffffffffffffffffffffffffffff168173ffffffffffffffffffffffffffffffffffffffff161415611fa5576040517f08c379a0000000000000000000000000000000000000000000000000000000008152600401611f9c906147d9565b60405180910390fd5b80915050919050565b600b8054611fbb90614c01565b80601f0160208091040260200160405190810160405280929190818152602001828054611fe790614c01565b80156120345780601f1061200957610100808354040283529160200191612034565b820191906000526020600020905b81548152906001019060200180831161201757829003601f168201915b505050505081565b60008073ffffffffffffffffffffffffffffffffffffffff168273ffffffffffffffffffffffffffffffffffffffff1614156120ad576040517f08c379a00000000000000000000000000000000000000000000000000000000081526004016120a4906147b9565b60405180910390fd5b600360008373ffffffffffffffffffffffffffffffffffffffff1673ffffffffffffffffffffffffffffffffffffffff168152602001908152602001600020549050919050565b6120fc612bb2565b73ffffffffffffffffffffffffffffffffffffffff1661211a612289565b73ffffffffffffffffffffffffffffffffffffffff1614612170576040517f08c379a000000000000000000000000000000000000000000000000000000000815260040161216790614839565b60405180910390fd5b61217a6000613037565b565b612184612bb2565b73ffffffffffffffffffffffffffffffffffffffff166121a2612289565b73ffffffffffffffffffffffffffffffffffffffff16146121f8576040517f08c379a00000000000000000000000000000000000000000000000000000000081526004016121ef90614839565b60405180910390fd5b6122247fb7671ae7033b9f13ff71d2077beb7d1f2225cb741c14f6f35394f58f73d3e8bd60001b612286565b6122507f2abf30ac447f708223cf715b0130ce3d872d7af89c1ca50a8e6e207f05a97bfc60001b612286565b61227c7ff84737cc4784941e81afe89f6c1fa0c0e6ff64ab6081e1df813bca59e06dbcda60001b612286565b80600f8190555050565b50565b6000600a60009054906101000a900473ffffffffffffffffffffffffffffffffffffffff16905090565b6060600180546122c290614c01565b80601f01602080910402602001604051908101604052809291908181526020018280546122ee90614c01565b801561233b5780601f106123105761010080835404028352916020019161233b565b820191906000526020600020905b81548152906001019060200180831161231e57829003601f168201915b5050505050905090565b61234d612bb2565b73ffffffffffffffffffffffffffffffffffffffff168273ffffffffffffffffffffffffffffffffffffffff1614156123bb576040517f08c379a00000000000000000000000000000000000000000000000000000000081526004016123b290614759565b60405180910390fd5b80600560006123c8612bb2565b73ffffffffffffffffffffffffffffffffffffffff1673ffffffffffffffffffffffffffffffffffffffff16815260200190815260200160002060008473ffffffffffffffffffffffffffffffffffffffff1673ffffffffffffffffffffffffffffffffffffffff16815260200190815260200160002060006101000a81548160ff0219169083151502179055508173ffffffffffffffffffffffffffffffffffffffff16612475612bb2565b73ffffffffffffffffffffffffffffffffffffffff167f17307eab39ab6107e8899845ad3d59bd9653f200f220920489ca2b5937696c31836040516124ba919061467c565b60405180910390a35050565b6124d76124d1612bb2565b83612cdf565b612516576040517f08c379a000000000000000000000000000000000000000000000000000000000815260040161250d906148b9565b60405180910390fd5b612522848484846130fd565b50505050565b600c805461253590614c01565b80601f016020809104026020016040519081016040528092919081815260200182805461256190614c01565b80156125ae5780601f10612583576101008083540402835291602001916125ae565b820191906000526020600020905b81548152906001019060200180831161259157829003601f168201915b505050505081565b60606125e47f8a453352de7a367f478852f1cb8501fa74e0f6fd099390b3d4dfd467d78278ca60001b612286565b6126107f9901d23fe8da3aa9b694197bd1ee194ccc853e3526f17ae57a9367077d1f54ba60001b612286565b61263c7ffbfc8cb7ffba927567b4d1844f7cae3fa33b2d8cb8304ceea416ae5253c4312560001b612286565b6126687f30592b573c563448e10ae218bb2356ef5ce7c69db67c01b65176f41fb29c872f60001b612286565b61267182612bba565b6126b0576040517f08c379a00000000000000000000000000000000000000000000000000000000081526004016126a790614879565b60405180910390fd5b6126dc7f5a243f285273629dd08f05c188f87875d4846838078c3ca6dbe8385a4c3fbb1760001b612286565b6127087f3a2afaabe668d97a655c3fe072a34a4079b81182643abe53da6b4494add200df60001b612286565b6127347fd46f7015a52296be3d0321a934675ac3d8c5cf47ead28969d73c363da2abb58360001b612286565b600061273e613159565b905061276c7faef14513dbfbb1705afd6f364c0b6c604faf22911d42697da6265e4ce51ae8db60001b612286565b6127987f2842ab2607added419f8bd3a4c938a67e2448c6f356edaefdb8a509630273a8560001b612286565b60008151116127b657604051806020016040528060008152506127e4565b806127c08461326f565b600c6040516020016127d4939291906145c2565b6040516020818303038152906040525b915050919050565b600e5481565b60116020528060005260406000206000915054906101000a900460ff1681565b61281a612bb2565b73ffffffffffffffffffffffffffffffffffffffff16612838612289565b73ffffffffffffffffffffffffffffffffffffffff161461288e576040517f08c379a000000000000000000000000000000000000000000000000000000000815260040161288590614839565b60405180910390fd5b6128ba7f2524a1850ff6fdc179b3f396ef5bfae4b157d39a4331a1f5eb6e47c6c5df2d3160001b612286565b6128e67fc4bddb7e7ed50d22229abdcd7c91f2bcdffc3fc9625707739f9d34d1d385f6a360001b612286565b6129127f0b480a88aac0021f252a9e92bfda4eab3da47ae5aa096931f0231d16f4d639d060001b612286565b80600c9080519060200190612928929190613cd2565b5050565b6000600560008473ffffffffffffffffffffffffffffffffffffffff1673ffffffffffffffffffffffffffffffffffffffff16815260200190815260200160002060008373ffffffffffffffffffffffffffffffffffffffff1673ffffffffffffffffffffffffffffffffffffffff16815260200190815260200160002060009054906101000a900460ff16905092915050565b6129c8612bb2565b73ffffffffffffffffffffffffffffffffffffffff166129e6612289565b73ffffffffffffffffffffffffffffffffffffffff1614612a3c576040517f08c379a0000000000000000000000000000000000000000000000000000000008152600401612a3390614839565b60405180910390fd5b600073ffffffffffffffffffffffffffffffffffffffff168173ffffffffffffffffffffffffffffffffffffffff161415612aac576040517f08c379a0000000000000000000000000000000000000000000000000000000008152600401612aa3906146f9565b60405180910390fd5b612ab581613037565b50565b600080823b905060008111915050919050565b505050565b60007f80ac58cd000000000000000000000000000000000000000000000000000000007bffffffffffffffffffffffffffffffffffffffffffffffffffffffff1916827bffffffffffffffffffffffffffffffffffffffffffffffffffffffff19161480612b9b57507f5b5e139f000000000000000000000000000000000000000000000000000000007bffffffffffffffffffffffffffffffffffffffffffffffffffffffff1916827bffffffffffffffffffffffffffffffffffffffffffffffffffffffff1916145b80612bab5750612baa8261341c565b5b9050919050565b600033905090565b60008073ffffffffffffffffffffffffffffffffffffffff166002600084815260200190815260200160002060009054906101000a900473ffffffffffffffffffffffffffffffffffffffff1673ffffffffffffffffffffffffffffffffffffffff1614159050919050565b816004600083815260200190815260200160002060006101000a81548173ffffffffffffffffffffffffffffffffffffffff021916908373ffffffffffffffffffffffffffffffffffffffff160217905550808273ffffffffffffffffffffffffffffffffffffffff16612c9983611efc565b73ffffffffffffffffffffffffffffffffffffffff167f8c5be1e5ebec7d5bd14f71427d1e84f3dd0314c0f7b2291e5b200ac8c7c3b92560405160405180910390a45050565b6000612cea82612bba565b612d29576040517f08c379a0000000000000000000000000000000000000000000000000000000008152600401612d2090614779565b60405180910390fd5b6000612d3483611efc565b90508073ffffffffffffffffffffffffffffffffffffffff168473ffffffffffffffffffffffffffffffffffffffff161480612da357508373ffffffffffffffffffffffffffffffffffffffff16612d8b84610ad3565b73ffffffffffffffffffffffffffffffffffffffff16145b80612db45750612db3818561292c565b5b91505092915050565b8273ffffffffffffffffffffffffffffffffffffffff16612ddd82611efc565b73ffffffffffffffffffffffffffffffffffffffff1614612e33576040517f08c379a0000000000000000000000000000000000000000000000000000000008152600401612e2a90614859565b60405180910390fd5b600073ffffffffffffffffffffffffffffffffffffffff168273ffffffffffffffffffffffffffffffffffffffff161415612ea3576040517f08c379a0000000000000000000000000000000000000000000000000000000008152600401612e9a90614739565b60405180910390fd5b612eae838383613486565b612eb9600082612c26565b6001600360008573ffffffffffffffffffffffffffffffffffffffff1673ffffffffffffffffffffffffffffffffffffffff1681526020019081526020016000206000828254612f099190614b0d565b925050819055506001600360008473ffffffffffffffffffffffffffffffffffffffff1673ffffffffffffffffffffffffffffffffffffffff1681526020019081526020016000206000828254612f609190614a2c565b92505081905550816002600083815260200190815260200160002060006101000a81548173ffffffffffffffffffffffffffffffffffffffff021916908373ffffffffffffffffffffffffffffffffffffffff160217905550808273ffffffffffffffffffffffffffffffffffffffff168473ffffffffffffffffffffffffffffffffffffffff167fddf252ad1be2c89b69c2b068fc378daa952ba7f163c4a11628f55a4df523b3ef60405160405180910390a4505050565b61303382826040518060200160405280600081525061359a565b5050565b6000600a60009054906101000a900473ffffffffffffffffffffffffffffffffffffffff16905081600a60006101000a81548173ffffffffffffffffffffffffffffffffffffffff021916908373ffffffffffffffffffffffffffffffffffffffff1602179055508173ffffffffffffffffffffffffffffffffffffffff168173ffffffffffffffffffffffffffffffffffffffff167f8be0079c531659141344cd1fd0a4f28419497f9722a3daafe3b4186f6b6457e060405160405180910390a35050565b613108848484612dbd565b613114848484846135f5565b613153576040517f08c379a000000000000000000000000000000000000000000000000000000000815260040161314a906146d9565b60405180910390fd5b50505050565b60606131877f0f9fae24cc4186b649a8e77ee96e08934e683b372b0415c0f587b073b0b415b760001b612286565b6131b37f53ecda1331ad1b6b14dd573087961aeba6d385ed20ecaaf2fdbb5c4be88b728d60001b612286565b6131df7f9b6c42a41972be65699e7528dba3bbcbf7c1717b1dd77c5c615b35d905126a5260001b612286565b600b80546131ec90614c01565b80601f016020809104026020016040519081016040528092919081815260200182805461321890614c01565b80156132655780601f1061323a57610100808354040283529160200191613265565b820191906000526020600020905b81548152906001019060200180831161324857829003601f168201915b5050505050905090565b606060008214156132b7576040518060400160405280600181526020017f30000000000000000000000000000000000000000000000000000000000000008152509050613417565b600082905060005b600082146132e95780806132d290614c64565b915050600a826132e29190614a82565b91506132bf565b60008167ffffffffffffffff81111561332b577f4e487b7100000000000000000000000000000000000000000000000000000000600052604160045260246000fd5b6040519080825280601f01601f19166020018201604052801561335d5781602001600182028036833780820191505090505b5090505b60008514613410576001826133769190614b0d565b9150600a856133859190614cad565b60306133919190614a2c565b60f81b8183815181106133cd577f4e487b7100000000000000000000000000000000000000000000000000000000600052603260045260246000fd5b60200101907effffffffffffffffffffffffffffffffffffffffffffffffffffffffffffff1916908160001a905350600a856134099190614a82565b9450613361565b8093505050505b919050565b60007f01ffc9a7000000000000000000000000000000000000000000000000000000007bffffffffffffffffffffffffffffffffffffffffffffffffffffffff1916827bffffffffffffffffffffffffffffffffffffffffffffffffffffffff1916149050919050565b613491838383612acb565b600073ffffffffffffffffffffffffffffffffffffffff168373ffffffffffffffffffffffffffffffffffffffff1614156134d4576134cf8161378c565b613513565b8173ffffffffffffffffffffffffffffffffffffffff168373ffffffffffffffffffffffffffffffffffffffff16146135125761351183826137d5565b5b5b600073ffffffffffffffffffffffffffffffffffffffff168273ffffffffffffffffffffffffffffffffffffffff1614156135565761355181613942565b613595565b8273ffffffffffffffffffffffffffffffffffffffff168273ffffffffffffffffffffffffffffffffffffffff1614613594576135938282613a85565b5b5b505050565b6135a48383613b04565b6135b160008484846135f5565b6135f0576040517f08c379a00000000000000000000000000000000000000000000000000000000081526004016135e7906146d9565b60405180910390fd5b505050565b60006136168473ffffffffffffffffffffffffffffffffffffffff16612ab8565b1561377f578373ffffffffffffffffffffffffffffffffffffffff1663150b7a0261363f612bb2565b8786866040518563ffffffff1660e01b8152600401613661949392919061460e565b602060405180830381600087803b15801561367b57600080fd5b505af19250505080156136ac57506040513d601f19601f820116820180604052508101906136a991906140e5565b60015b61372f573d80600081146136dc576040519150601f19603f3d011682016040523d82523d6000602084013e6136e1565b606091505b50600081511415613727576040517f08c379a000000000000000000000000000000000000000000000000000000000815260040161371e906146d9565b60405180910390fd5b805181602001fd5b63150b7a0260e01b7bffffffffffffffffffffffffffffffffffffffffffffffffffffffff1916817bffffffffffffffffffffffffffffffffffffffffffffffffffffffff191614915050613784565b600190505b949350505050565b6008805490506009600083815260200190815260200160002081905550600881908060018154018082558091505060019003906000526020600020016000909190919091505550565b600060016137e28461203c565b6137ec9190614b0d565b90506000600760008481526020019081526020016000205490508181146138d1576000600660008673ffffffffffffffffffffffffffffffffffffffff1673ffffffffffffffffffffffffffffffffffffffff168152602001908152602001600020600084815260200190815260200160002054905080600660008773ffffffffffffffffffffffffffffffffffffffff1673ffffffffffffffffffffffffffffffffffffffff168152602001908152602001600020600084815260200190815260200160002081905550816007600083815260200190815260200160002081905550505b6007600084815260200190815260200160002060009055600660008573ffffffffffffffffffffffffffffffffffffffff1673ffffffffffffffffffffffffffffffffffffffff16815260200190815260200160002060008381526020019081526020016000206000905550505050565b600060016008805490506139569190614b0d565b90506000600960008481526020019081526020016000205490506000600883815481106139ac577f4e487b7100000000000000000000000000000000000000000000000000000000600052603260045260246000fd5b9060005260206000200154905080600883815481106139f4577f4e487b7100000000000000000000000000000000000000000000000000000000600052603260045260246000fd5b906000526020600020018190555081600960008381526020019081526020016000208190555060096000858152602001908152602001600020600090556008805480613a69577f4e487b7100000000000000000000000000000000000000000000000000000000600052603160045260246000fd5b6001900381819060005260206000200160009055905550505050565b6000613a908361203c565b905081600660008573ffffffffffffffffffffffffffffffffffffffff1673ffffffffffffffffffffffffffffffffffffffff168152602001908152602001600020600083815260200190815260200160002081905550806007600084815260200190815260200160002081905550505050565b600073ffffffffffffffffffffffffffffffffffffffff168273ffffffffffffffffffffffffffffffffffffffff161415613b74576040517f08c379a0000000000000000000000000000000000000000000000000000000008152600401613b6b906147f9565b60405180910390fd5b613b7d81612bba565b15613bbd576040517f08c379a0000000000000000000000000000000000000000000000000000000008152600401613bb490614719565b60405180910390fd5b613bc960008383613486565b6001600360008473ffffffffffffffffffffffffffffffffffffffff1673ffffffffffffffffffffffffffffffffffffffff1681526020019081526020016000206000828254613c199190614a2c565b92505081905550816002600083815260200190815260200160002060006101000a81548173ffffffffffffffffffffffffffffffffffffffff021916908373ffffffffffffffffffffffffffffffffffffffff160217905550808273ffffffffffffffffffffffffffffffffffffffff16600073ffffffffffffffffffffffffffffffffffffffff167fddf252ad1be2c89b69c2b068fc378daa952ba7f163c4a11628f55a4df523b3ef60405160405180910390a45050565b828054613cde90614c01565b90600052602060002090601f016020900481019282613d005760008555613d47565b82601f10613d1957805160ff1916838001178555613d47565b82800160010185558215613d47579182015b82811115613d46578251825591602001919060010190613d2b565b5b509050613d549190613d58565b5090565b5b80821115613d71576000816000905550600101613d59565b5090565b6000613d88613d8384614939565b614914565b905082815260208101848484011115613da057600080fd5b613dab848285614bbf565b509392505050565b6000613dc6613dc18461496a565b614914565b905082815260208101848484011115613dde57600080fd5b613de9848285614bbf565b509392505050565b600081359050613e00816152a1565b92915050565b600081359050613e15816152b8565b92915050565b600081359050613e2a816152cf565b92915050565b600081359050613e3f816152e6565b92915050565b600081519050613e54816152e6565b92915050565b600082601f830112613e6b57600080fd5b8135613e7b848260208601613d75565b91505092915050565b600082601f830112613e9557600080fd5b8135613ea5848260208601613db3565b91505092915050565b600081359050613ebd816152fd565b92915050565b600060208284031215613ed557600080fd5b6000613ee384828501613df1565b91505092915050565b60008060408385031215613eff57600080fd5b6000613f0d85828601613df1565b9250506020613f1e85828601613df1565b9150509250929050565b600080600060608486031215613f3d57600080fd5b6000613f4b86828701613df1565b9350506020613f5c86828701613df1565b9250506040613f6d86828701613eae565b9150509250925092565b60008060008060808587031215613f8d57600080fd5b6000613f9b87828801613df1565b9450506020613fac87828801613df1565b9350506040613fbd87828801613eae565b925050606085013567ffffffffffffffff811115613fda57600080fd5b613fe687828801613e5a565b91505092959194509250565b6000806040838503121561400557600080fd5b600061401385828601613df1565b925050602061402485828601613e06565b9150509250929050565b6000806040838503121561404157600080fd5b600061404f85828601613df1565b925050602061406085828601613eae565b9150509250929050565b60006020828403121561407c57600080fd5b600061408a84828501613e06565b91505092915050565b6000602082840312156140a557600080fd5b60006140b384828501613e1b565b91505092915050565b6000602082840312156140ce57600080fd5b60006140dc84828501613e30565b91505092915050565b6000602082840312156140f757600080fd5b600061410584828501613e45565b91505092915050565b60006020828403121561412057600080fd5b600082013567ffffffffffffffff81111561413a57600080fd5b61414684828501613e84565b91505092915050565b60006020828403121561416157600080fd5b600061416f84828501613eae565b91505092915050565b600061418483836145a4565b60208301905092915050565b61419981614b41565b82525050565b60006141aa826149c0565b6141b481856149ee565b93506141bf8361499b565b8060005b838110156141f05781516141d78882614178565b97506141e2836149e1565b9250506001810190506141c3565b5085935050505092915050565b61420681614b53565b82525050565b6000614217826149cb565b61422181856149ff565b9350614231818560208601614bce565b61423a81614d9a565b840191505092915050565b6000614250826149d6565b61425a8185614a10565b935061426a818560208601614bce565b61427381614d9a565b840191505092915050565b6000614289826149d6565b6142938185614a21565b93506142a3818560208601614bce565b80840191505092915050565b600081546142bc81614c01565b6142c68186614a21565b945060018216600081146142e157600181146142f257614325565b60ff19831686528186019350614325565b6142fb856149ab565b60005b8381101561431d578154818901526001820191506020810190506142fe565b838801955050505b50505092915050565b600061433b602b83614a10565b915061434682614dab565b604082019050919050565b600061435e603283614a10565b915061436982614dfa565b604082019050919050565b6000614381602683614a10565b915061438c82614e49565b604082019050919050565b60006143a4601c83614a10565b91506143af82614e98565b602082019050919050565b60006143c7602483614a10565b91506143d282614ec1565b604082019050919050565b60006143ea601983614a10565b91506143f582614f10565b602082019050919050565b600061440d602c83614a10565b915061441882614f39565b604082019050919050565b6000614430603883614a10565b915061443b82614f88565b604082019050919050565b6000614453602a83614a10565b915061445e82614fd7565b604082019050919050565b6000614476602983614a10565b915061448182615026565b604082019050919050565b6000614499602083614a10565b91506144a482615075565b602082019050919050565b60006144bc602c83614a10565b91506144c78261509e565b604082019050919050565b60006144df602083614a10565b91506144ea826150ed565b602082019050919050565b6000614502602983614a10565b915061450d82615116565b604082019050919050565b6000614525602f83614a10565b915061453082615165565b604082019050919050565b6000614548602183614a10565b9150614553826151b4565b604082019050919050565b600061456b603183614a10565b915061457682615203565b604082019050919050565b600061458e602c83614a10565b915061459982615252565b604082019050919050565b6145ad81614bb5565b82525050565b6145bc81614bb5565b82525050565b60006145ce828661427e565b91506145da828561427e565b91506145e682846142af565b9150819050949350505050565b60006020820190506146086000830184614190565b92915050565b60006080820190506146236000830187614190565b6146306020830186614190565b61463d60408301856145b3565b818103606083015261464f818461420c565b905095945050505050565b60006020820190508181036000830152614674818461419f565b905092915050565b600060208201905061469160008301846141fd565b92915050565b600060208201905081810360008301526146b18184614245565b905092915050565b600060208201905081810360008301526146d28161432e565b9050919050565b600060208201905081810360008301526146f281614351565b9050919050565b6000602082019050818103600083015261471281614374565b9050919050565b6000602082019050818103600083015261473281614397565b9050919050565b60006020820190508181036000830152614752816143ba565b9050919050565b60006020820190508181036000830152614772816143dd565b9050919050565b6000602082019050818103600083015261479281614400565b9050919050565b600060208201905081810360008301526147b281614423565b9050919050565b600060208201905081810360008301526147d281614446565b9050919050565b600060208201905081810360008301526147f281614469565b9050919050565b600060208201905081810360008301526148128161448c565b9050919050565b60006020820190508181036000830152614832816144af565b9050919050565b60006020820190508181036000830152614852816144d2565b9050919050565b60006020820190508181036000830152614872816144f5565b9050919050565b6000602082019050818103600083015261489281614518565b9050919050565b600060208201905081810360008301526148b28161453b565b9050919050565b600060208201905081810360008301526148d28161455e565b9050919050565b600060208201905081810360008301526148f281614581565b9050919050565b600060208201905061490e60008301846145b3565b92915050565b600061491e61492f565b905061492a8282614c33565b919050565b6000604051905090565b600067ffffffffffffffff82111561495457614953614d6b565b5b61495d82614d9a565b9050602081019050919050565b600067ffffffffffffffff82111561498557614984614d6b565b5b61498e82614d9a565b9050602081019050919050565b6000819050602082019050919050565b60008190508160005260206000209050919050565b600081519050919050565b600081519050919050565b600081519050919050565b6000602082019050919050565b600082825260208201905092915050565b600082825260208201905092915050565b600082825260208201905092915050565b600081905092915050565b6000614a3782614bb5565b9150614a4283614bb5565b9250827fffffffffffffffffffffffffffffffffffffffffffffffffffffffffffffffff03821115614a7757614a76614cde565b5b828201905092915050565b6000614a8d82614bb5565b9150614a9883614bb5565b925082614aa857614aa7614d0d565b5b828204905092915050565b6000614abe82614bb5565b9150614ac983614bb5565b9250817fffffffffffffffffffffffffffffffffffffffffffffffffffffffffffffffff0483118215151615614b0257614b01614cde565b5b828202905092915050565b6000614b1882614bb5565b9150614b2383614bb5565b925082821015614b3657614b35614cde565b5b828203905092915050565b6000614b4c82614b95565b9050919050565b60008115159050919050565b6000819050919050565b60007fffffffff0000000000000000000000000000000000000000000000000000000082169050919050565b600073ffffffffffffffffffffffffffffffffffffffff82169050919050565b6000819050919050565b82818337600083830152505050565b60005b83811015614bec578082015181840152602081019050614bd1565b83811115614bfb576000848401525b50505050565b60006002820490506001821680614c1957607f821691505b60208210811415614c2d57614c2c614d3c565b5b50919050565b614c3c82614d9a565b810181811067ffffffffffffffff82111715614c5b57614c5a614d6b565b5b80604052505050565b6000614c6f82614bb5565b91507fffffffffffffffffffffffffffffffffffffffffffffffffffffffffffffffff821415614ca257614ca1614cde565b5b600182019050919050565b6000614cb882614bb5565b9150614cc383614bb5565b925082614cd357614cd2614d0d565b5b828206905092915050565b7f4e487b7100000000000000000000000000000000000000000000000000000000600052601160045260246000fd5b7f4e487b7100000000000000000000000000000000000000000000000000000000600052601260045260246000fd5b7f4e487b7100000000000000000000000000000000000000000000000000000000600052602260045260246000fd5b7f4e487b7100000000000000000000000000000000000000000000000000000000600052604160045260246000fd5b6000601f19601f8301169050919050565b7f455243373231456e756d657261626c653a206f776e657220696e646578206f7560008201527f74206f6620626f756e6473000000000000000000000000000000000000000000602082015250565b7f4552433732313a207472616e7366657220746f206e6f6e20455243373231526560008201527f63656976657220696d706c656d656e7465720000000000000000000000000000602082015250565b7f4f776e61626c653a206e6577206f776e657220697320746865207a65726f206160008201527f6464726573730000000000000000000000000000000000000000000000000000602082015250565b7f4552433732313a20746f6b656e20616c7265616479206d696e74656400000000600082015250565b7f4552433732313a207472616e7366657220746f20746865207a65726f2061646460008201527f7265737300000000000000000000000000000000000000000000000000000000602082015250565b7f4552433732313a20617070726f766520746f2063616c6c657200000000000000600082015250565b7f4552433732313a206f70657261746f7220717565727920666f72206e6f6e657860008201527f697374656e7420746f6b656e0000000000000000000000000000000000000000602082015250565b7f4552433732313a20617070726f76652063616c6c6572206973206e6f74206f7760008201527f6e6572206e6f7220617070726f76656420666f7220616c6c0000000000000000602082015250565b7f4552433732313a2062616c616e636520717565727920666f7220746865207a6560008201527f726f206164647265737300000000000000000000000000000000000000000000602082015250565b7f4552433732313a206f776e657220717565727920666f72206e6f6e657869737460008201527f656e7420746f6b656e0000000000000000000000000000000000000000000000602082015250565b7f4552433732313a206d696e7420746f20746865207a65726f2061646472657373600082015250565b7f4552433732313a20617070726f76656420717565727920666f72206e6f6e657860008201527f697374656e7420746f6b656e0000000000000000000000000000000000000000602082015250565b7f4f776e61626c653a2063616c6c6572206973206e6f7420746865206f776e6572600082015250565b7f4552433732313a207472616e73666572206f6620746f6b656e2074686174206960008201527f73206e6f74206f776e0000000000000000000000000000000000000000000000602082015250565b7f4552433732314d657461646174613a2055524920717565727920666f72206e6f60008201527f6e6578697374656e7420746f6b656e0000000000000000000000000000000000602082015250565b7f4552433732313a20617070726f76616c20746f2063757272656e74206f776e6560008201527f7200000000000000000000000000000000000000000000000000000000000000602082015250565b7f4552433732313a207472616e736665722063616c6c6572206973206e6f74206f60008201527f776e6572206e6f7220617070726f766564000000000000000000000000000000602082015250565b7f455243373231456e756d657261626c653a20676c6f62616c20696e646578206f60008201527f7574206f6620626f756e64730000000000000000000000000000000000000000602082015250565b6152aa81614b41565b81146152b557600080fd5b50565b6152c181614b53565b81146152cc57600080fd5b50565b6152d881614b5f565b81146152e357600080fd5b50565b6152ef81614b69565b81146152fa57600080fd5b50565b61530681614bb5565b811461531157600080fd5b5056fea26469706673582212202e1f416e818f3e6ec724afafc3510cd22cab648e7ce46d36891339185d971e8764736f6c63430008040033",
  "linkReferences": {},
  "deployedLinkReferences": {}
}